:100000003BC05FC05EC05DC05CC05BC05AC059C031
:1000100058C0ADC456C079C453C453C052C051C0B7
:1000200050C0EFC44EC000000000000000000003FC
:10003000040600000000000000000000000038007E
:1000400035003200000000003700340031000404A5
:100050000404040404040202020202020303030370
:10006000030301020408102040800102040810204C
:10007000010204081020160611241FBECFE5D4E0AB
:10008000DEBFCDBF10E0A0E6B0E0E0E2F0E102C0EC
:1000900005900D92A838B107D9F721E0A8E8B0E0A3
:1000A00001C01D92A43FB207E1F710E0CCE3D0E01D
:1000B00003C02197FE01ACD7CB33D107D1F7EDD5E3
:1000C000ADC79ECF90E0FC01EE59FF4F2491825BBB
:1000D0009F4FFC018491882399F090E0880F991F2D
:1000E000FC01EC5BFF4FA591B491FC01E65CFF4F76
:1000F000859194918FB7F894EC91E22BEC938FBF9C
:10010000089508950895AF92BF92CF92DF92EF9233
:10011000FF920F931F93CF93DF936C017B018B01B1
:10012000040F151FEB015E01AE18BF08C017D10701
:1001300059F06991D601ED91FC910190F081E02D8B
:10014000C6010995892B79F7C501DF91CF911F91E0
:100150000F91FF90EF90DF90CF90BF90AF900895F8
:10016000FC01538D448D252F30E0842F90E0821BBD
:10017000930B541710F0CF96089501970895FC0142
:10018000918D828D981761F0A28DAE0FBF2FB11D9A
:100190005D968C91928D9F5F9F73928F90E00895F2
:1001A0008FEF9FEF0895FC01918D828D981731F0AC
:1001B000828DE80FF11D858D90E008958FEF9FEF00
:1001C0000895FC01918D228D892F90E0805C9F4FD6
:1001D000821B91098F73992708958BE491E0F1DFD9
:1001E00021E0892B09F420E0822F089580E090E03F
:1001F000892B19F0F2DF811103CF0895FC01A48D42
:10020000A80FB92FB11DA35ABF4F2C91848D90E038
:1002100001968F739927848FA689B7892C93A0891B
:10022000B1898C9182748C93938D848D981306C0C0
:100230000288F389E02D80818F7D80830895EF927D
:10024000FF920F931F93CF93DF93EC0181E0888F90
:100250009B8D8C8D981319C0E889F989808185FF61
:1002600014C09FB7F894EE89FF896083E889F98903
:100270008081827480839FBF81E090E0DF91CF9185
:100280001F910F91FF90EF900895F62E0B8D10E0C7
:100290000F5F1F4F0F731127E02E8C8D8E110BC037
:1002A0000FB607FCFACFE889F989808185FFF5CF81
:1002B000CE01A4DFF2CFEB8DEC0FFD2FF11DE35A41
:1002C000FF4FF0829FB7F8940B8FEA89FB898081FA
:1002D0008062D0CFCF93DF93EC01888D8823B1F07B
:1002E000AA89BB89E889F9898C9185FD03C0808141
:1002F00086FD0CC00FB607FCF7CF8C9185FFF2CFBF
:10030000808185FFEDCFCE0179DFEACFDF91CF91FC
:10031000089590E0FC01EA5DFF4F3491FC01EE5935
:10032000FF4F2491FC01E25BFF4FE491EE23E1F0EB
:10033000332349F03430C9F03630D1F0333019F47A
:100340008FB58F778FBDF0E0EE0FFF1FE65CFF4F9C
:10035000A591B4918FB7F89461110EC09C91E22FD2
:10036000E095E923EC938FBF08958FB58F7DEACF99
:1003700085B58F7D85BDE7CFEC91E22BF3CF3FB7FD
:10038000F8948091D1009091D200A091D300B091C7
:10039000D40022B708B600FE05C02F3F19F0019621
:1003A000A11DB11D3FBFBA2FA92F982F8827BC01CF
:1003B000CD01620F711D811D911D44E0660F771FF5
:1003C000881F991F4A95D1F708958F929F92AF92F7
:1003D000BF92CF92DF92EF92FF92D1DF4B015C018F
:1003E00084EFC82EDD24D394E12CF12CC8DF6819EA
:1003F00079098A099B09683E734081059105B0F32C
:1004000021E0C21AD108E108F10888EE880E83E0E5
:10041000981EA11CB11CC114D104E104F10431F7F0
:10042000FF90EF90DF90CF90BF90AF909F908F9014
:1004300008952091A900260F3327331F213231055B
:10044000ECF420912101FC0190E080E0243069F07F
:1004500082E00895A091A9002191AC0147575F4F18
:10046000A40FB52FB11D2C930196861798F3809198
:10047000A900680F6093A90080E0089581E00895C5
:100480001092210181E0809320011092FB0061E035
:1004900082E13FDF61E083E13CDF089809988CE06E
:1004A00080B985E486BF0895CF93DF9391E0909360
:1004B0008800882371F0C0B1D2B186B78A7B86BF2D
:1004C00060E082E126DF60E083E123DFD9DFD2B99B
:1004D000C0B9DF91CF9108958F929F92AF92BF9252
:1004E000CF92DF92EF92FF920F931F93CF93DF9300
:1004F000D0914A01D13208F0CCC0182FC0914901E7
:100500003EDF6B017C0180912101811164C082E09A
:1005100080932101109320018FEF80931F0110928F
:100520001E01D0931D01A9E2B1E0EDEFF0E080E003
:10053000D81388C01092FC008091FC00CC0FC82B0F
:10054000C093FC008091FB00813009F07FC01092C5
:10055000FB0015DF6B017C018091FC0083B9809169
:10056000230190912401A0912501B0912601892BAE
:100570008A2B8B2B91F003DF009123011091240132
:1005800020912501309126016C197D098E099F0962
:100590000617170728073907F0F106B603FCDCCF6A
:1005A00085EC86BFECDE6B017C01809121018230FD
:1005B00009F44EC080911F018F3F09F46CC08091F7
:1005C0001F01803209F469C080911F01803309F452
:1005D00066C084E024C08091230190912401A09101
:1005E0002501B0912601892B8A2B8B2B09F48BCF07
:1005F000C6DE8090230190902401A0902501B09048
:1006000026016C197D098E099F0986169706A80692
:10061000B90608F078CF8091220146DF85E010927C
:10062000280110924A0110922701DF91CF911F916A
:100630000F91FF90EF90DF90CF90BF90AF909F9081
:100640008F9008959D9191938F5F72CF85EEA9CF82
:100650008091230190912401A0912501B091260160
:10066000892B8A2B8B2B09F4A0CF89DE00912301E3
:100670001091240120912501309126016C197D09EA
:100680008E099F09061717072807390708F08DCF2D
:10069000C2CF81E0C4CF80E0C2CF82E0C0CF83E090
:1006A000BECF0895E091DA008091D900E81730F4C8
:1006B000F0E0E552FF4F808190E008958FEF9FEFCB
:1006C00008959091DA008091D9002FEF3FEF9817AD
:1006D00048F4E92FF0E0E552FF4F208130E09F5FC2
:1006E0009093DA00C90108958091D9009091DA00C1
:1006F000891B990B0895CF92DF92EF92FF920F938F
:100700001F93CF93DF937C01CB018A0120912701B6
:10071000222389F0EB016B01C40ED51ECC15DD053B
:1007200061F06991D701ED91FC910190F081E02D8C
:10073000C7010995F3CF642F7CDEC801DF91CF910B
:100740001F910F91FF90EF90DF90CF900895CF937E
:10075000DF931F92CDB7DEB7698320912701222353
:10076000F9F020914A01203258F021E030E0FC01FC
:100770003383228390E080E00F90DF91CF91089542
:1007800080912801E82FF0E0E75DFE4F998190838A
:100790008F5F8093280180934A0181E090E0ECCF45
:1007A00061E0CE01019645DEF8CF90E080E008954B
:1007B0008F929F92AF92BF920F931F93CF93DF932D
:1007C000CDB7DEB7A1970FB6F894DEBF0FBECDBF91
:1007D00019A2423008F44AE08E010F5D1F4F842EAB
:1007E000912CB12CA12CA5019401F0D3E62FB901D5
:1007F000CA01EA303CF5E05DD801EE938D01232B70
:10080000242B252B81F790E080E0109761F0FD010B
:1008100001900020E9F73197AF014A1B5B0BBD0146
:100820008BE491E070DCA1960FB6F894DEBF0FBEAA
:10083000CDBFDF91CF911F910F91BF90AF909F904F
:100840008F900895E95CD8CF42E050E064E870E012
:100850008BE491E058CC85ED86BF80912301909187
:100860002401A0912501B09126010796A11DB11D7B
:1008700023E0B695A795979587952A95D1F706B663
:1008800004FC03C01092210108954091230150916E
:1008900024016091250170912601452B462B472BA1
:1008A00071F30097A105B10541F02DE02A95F1F70C
:1008B00000000197A109B109E2CF80912201F4CD96
:1008C0001F920F920FB60F9211242F933F934F93C5
:1008D0005F936F937F938F939F93AF93BF93EF93A8
:1008E000FF938BE491E08ADCFF91EF91BF91AF9190
:1008F0009F918F917F916F915F914F913F912F9138
:100900000F900FBE0F901F9018951F920F920FB669
:100910000F9211242F938F939F93EF93FF93E09166
:100920005B01F0915C018081E0916101F0916201D5
:1009300082FD1BC09081809164018F5F8F73209135
:100940006501821741F0E0916401F0E0E55BFE4F44
:10095000958F80936401FF91EF919F918F912F91DB
:100960000F900FBE0F901F9018958081F4CF1F92AB
:100970000F920FB60F9211242F933F938F939F9353
:10098000AF93BF938091CD009091CE00A091CF0006
:10099000B091D0003091CC002CE0230F2D3758F5CA
:1009A0000496A11DB11D2093CC008093CD0090939F
:1009B000CE00A093CF00B093D0008091D100909151
:1009C000D200A091D300B091D4000196A11DB11D19
:1009D0008093D1009093D200A093D300B093D40021
:1009E000BF91AF919F918F913F912F910F900FBE2B
:1009F0000F901F9018952FE8230F0596A11DB11D8C
:100A0000D2CF1F920F920FB60F9211242F933F93C4
:100A10004F935F936F937F938F939F93AF93BF9306
:100A2000EF93FF9381B1887F803609F449C0E8F5E0
:100A3000883209F4A2C018F5803109F498C0B8F4DE
:100A4000882309F4F0C0883009F491C0FF91EF9138
:100A5000BF91AF919F918F917F916F915F914F91D6
:100A60003F912F910F900FBE0F901F9018958831D6
:100A700009F483C0803251F780931F0114C0803481
:100A800009F497C040F48033B9F38833F9F68093C2
:100A90001F0185ECA9C0803509F480C0883509F4B0
:100AA00090C0883499F6D7DED1CF883909F487C051
:100AB00030F5883729F050F4883611F0803731F658
:100AC00083E0809321011092CB0054C0883809F450
:100AD00076C0803919F0803809F0B8CF8091CB000A
:100AE000803208F06CC0E091CB0081E08E0F8093E3
:100AF000CB0083B1F0E0E555FF4F80833BC0803BE6
:100B000039F0E0F4803A09F473C0883A09F09ECFD6
:100B100084E0809321011092AA001092A900E09134
:100B2000D700F091D80009958091A90081110FC0DC
:100B300081E08093A9001092890009C0803C09F4EB
:100B4000A8CF883C09F4A5CF883B09F07FCFE0917E
:100B5000AA0081E08E0F8093AA00F0E0E757FF4FD4
:100B6000808183B99091AA008091A90026C08091CC
:100B7000FC0083B985EC86BF69CF90911E018091FE
:100B80001D01981748F5E0911E0181E08E0F8093BA
:100B90001E01F0E0E350FF4F8081EBCFE0911E019A
:100BA00081E08E0F80931E0183B1F0E0E350FF4F90
:100BB000808390911E0180911D019817D8F285E8DD
:100BC000DACFE0911E0181E08E0F80931E0183B188
:100BD000F0E0E350FF4F808380912001811163CFCB
:100BE00081E08093FB0084EA86BF109221012ECF22
:100BF00085EC86BF109221018091CB00803230F4C9
:100C0000E091CB00F0E0E555FF4F10826091CB0002
:100C100070E0E091D500F091D6008BEA90E0099564
:100C20001092CB0013CF10921F013DCFEBE4F1E007
:100C30001382128288EE93E0A0E0B0E08483958373
:100C4000A683B78324E630E03183208320E430E0BC
:100C50003587248749E250E0578746874BE250E0CA
:100C6000518B408B4AE250E0538B428B358B248B67
:100C70002CE230E0378B268B118E128E138E148E61
:100C8000E8EEF1E01382128284839583A683B78312
:100C900086E790E0918380830895789483B782609B
:100CA00083BF83B7816083BF89B7816089BF1EBC62
:100CB0008EB582608EBD8FB581608FBD85B5846035
:100CC00085BD85B5806485BD329A3198309A379A52
:100CD0001AB8E0915B01F0915C0182E08083E091C1
:100CE0005701F09158011082E0915901F0915A0199
:100CF00083E3808310926301E0915F01F0916001D2
:100D000086E88083E0915D01F0915E0180818061E1
:100D10008083E0915D01F0915E0180818860808335
:100D2000E0915D01F0915E01808180688083E091B7
:100D30005D01F0915E0180818F7D808388E0C2D962
:100D400089E0C0D984E0BED985E0BCD91092DA0030
:100D50001092D9001092280110924A0191DB81E88B
:100D600090E09093D8008093D70082E890E0909331
:100D7000D6008093D50020E4922E3FE6A32E18E4FF
:100D800045EED42E55ECC52E03E160E0E62E60E082
:100D9000F62EBB24BA9419DB97B8369A3699FECF53
:100DA00094B185B1892798278927A89EB001A99E6B
:100DB000700D1124769567957695679590E080E0A3
:100DC0004AE0F6DC41DD60E088E0A3DAFEDA61E0CB
:100DD00088E09FDA1093490110924A0181E07CDBA0
:100DE00081E0809327011092280110924A016FE858
:100DF00088EE91E0ACDC81E06FDBC1DA2B013C01D5
:100E00008091210181115BC081E080932101809359
:100E10002001B0921F0110921E0180931D0180934A
:100E2000FC008091FC0080698093FC008091FB00B5
:100E3000813009F0A6C01092FB00A1DA2B013C0121
:100E40008091FC0083B98091230190912401A091AD
:100E50002501B0912601892B8A2B8B2B91F08FDAFB
:100E600020912301309124014091250150912601C8
:100E7000641975098609970926173707480759071E
:100E8000F0F106B603FCDCCFC6BE79DA2B013C01DB
:100E900080912101813009F476C080911E01823059
:100EA00008F092C080911E01ADEFB0E0EBEDF0E0F4
:100EB00090E0981741F12D9121939F5FFACF809197
:100EC000230190912401A0912501B0912601892B45
:100ED0008A2B8B2B09F494CF52DA20912301309185
:100EE0002401409125015091260164197509860954
:100EF0009709261737074807590708F081CF8091CF
:100F00002201D2DA80E01092DA008093D90088EED4
:100F100091E0D7DBD82F80E0C82F88EE91E0D1DBBD
:100F20008C2B9D2B089F9001099F300D112437FFBA
:100F300002C02D5F3F4F359527953595279529019F
:100F4000032E000C660877084AE0C301B20137FFA0
:100F50000CC06DE28BE491E072D966277727CB0154
:100F600064197509860997094AE022DC6DDCE114F1
:100F7000F10409F410CF31D9882309F40CCF40D8FB
:100F80000ACFD6BE82CF8091230190912401A091F7
:100F90002501B0912601892B8A2B8B2B09F478CF60
:100FA000EED92091230130912401409125015091E7
:100FB0002601641975098609970926173707480716
:100FC000590708F065CF9BCF82E06ECFA1E21A2EC1
:100FD000AA1BBB1BFD010DC0AA1FBB1FEE1FFF1FDD
:100FE000A217B307E407F50720F0A21BB30BE40B2D
:100FF000F50B661F771F881F991F1A9469F7609574
:101000007095809590959B01AC01BD01CF0108952D
:10101000EE0FFF1F0590F491E02D0994F894FFCF97
:10102000000000001F018300B0006A01E100BF0062
:10103000D30000000000A7037B03D5035103740312
:08104000610352030D0A0000D8
:00000001FF
